:08000000803102288731EE2F48
:100AB40020008C110C110800FE0012001E00FE0B19
:100AC4005F2D00348531B725853186310526853182
:100AD400672D701C702D20000D15080020000D11CD
:100AE4000800701C782D20008D16080020008D123F
:100AF4000800701C802D20000D17080020000D1325
:100B04000800701C882D20008D17080020008D130C
:100B14000800701C902D20008D14080020008D10FA
:100B24000800701C982D20008C17080020008C13DE
:100B34000800701CA02D20000C14080020000C10CC
:100B44000800701CA82D20008C14080020008C10B4
:100B540008000B3400340B34003401340034013405
:100B64000034013400340034003472302100990020
:100B740023008C018D0121008C018D0120008C014A
:100B84008D01080085315A25853170087104031DD3
:100B9400CD2D20008C1570037104031D0800200066
:100BA4000C150800F401F50171087502031DDC2D14
:100BB40070087402031808000330F3009730F20041
:100BC400F20BE22DF30BE22D00320130F40700307A
:100BD400F53DD62D20003408AC003308AB003208B4
:100BE400AA003108A9003808A8003708A700360869
:100BF400A6003508A5002530FB007B08F700293046
:100C04008631FA2608002000AF01B0013008803A8E
:100C1400FC0080307C02031D112E0B302F020318C0
:100C2400512E20003008BE002F08BD003008C0003F
:100C34002F08BF00AD01AE012E08803AFC008030C1
:100C44007C02031D272E64302D020318412E3930F7
:100C5400FC007C08F7003D308631FA2686310130ED
:100C64002000AD070030AE3D2E08803AFC008030F5
:100C74007C02031D3F2E64302D02031C292E0130FB
:100C84002000AF070030B03D3008803AFC008030CF
:100C94007C02031D4F2E0B302F02031C132E200049
:100CA400AF01B0013008803AFC0080307C02031DA3
:100CB4005D2E64302F02031808008531EC2586313F
:100CC40001302000AF070030B03D542E01307205D2
:100CD400F00000307305F10085316B25863173080F
:100CE400F5007208F400750DF50CF40C0130740570
:100CF400F00000307505F1008531732586317308E5
:100D0400F5007208F400750DF50CF40C750DF50C76
:100D1400F40C01307405F00000307505F1008531E4
:100D24007B2586317308F5007208F400750DF50C07
:100D3400F40C750DF50CF40C750DF50CF40C013078
:100D44007405F00000307505F10085318325863186
:100D54007308F5007208F4000430F600750DF50C04
:100D6400F40CF60BB02E01307405F000003075055C
:100D7400F10085318B2586317308F5007208F40083
:100D84000530F600750DF50CF40CF60BC42E01308D
:100D94007405F00000307505F10085319325863126
:100DA4007308F5007208F4000630F600750DF50CB2
:100DB400F40CF60BD82E01307405F00000307505E4
:100DC400F10085319B2586317308F5007208F40023
:100DD4000730F600750DF50CF40CF60BEC2E013013
:100DE4007405F00000307505F1008531A325080075
:100DF4002000A200A301A4012408803AF800803056
:100E04007802031D072F0230230203180800200074
:100E1400A001A10123352207F80078088600870184
:100E240016000104031D182F3F30BB2F2335220762
:100E3400F8007808860087011600013AF9001600C8
:100E4400F904031D272F0630BB2F23352207F80092
:100E54007808860087011600023AF9001600F904A2
:100E6400031D362F5B30BB2F23352207F80078088B
:100E7400860087011600033AF9001600F904031DE1
:100E8400452F4F30BB2F23352207F8007808860002
:100E940087011600043AF9001600F904031D542FC3
:100EA4006630BB2F23352207F800780886008701B7
:100EB4001600053AF9001600F904031D632F6D307E
:100EC400BB2F23352207F800780886008701160017
:100ED400063AF9001600F904031D722F7D30BB2F6A
:100EE40023352207F8007808860087011600073AA0
:100EF400F9001600F904031D812F2730BB2F233579
:100F04002207F8007808860087011600083AF900DD
:100F14001600F904031D902F7F30BB2F23352207C1
:100F2400F8007808860087011600093AF9001600CF
:100F3400F904031D9F2F6F30BB2F23352207F800C0
:100F440078088600870116000A3AF9001600F904A9
:100F5400031DAF2FA001A101BE2F23352207F800E6
:100F640078088600870116000B3AF9001600F90488
:100F74007930A0000030A10023357707F800780805
:100F8400860087011600013AF9001600F904031DD2
:100F9400CF2F8030A0070030A13D2108F3002008A6
:100FA400F20086316826863120002408F1002308E7
:100FB400F0008531C42586310530F0000030F100A1
:100FC4008531D425863185315A258631013020007A
:100FD400A3070030A43DFE2EAB308400853085008D
:100FE40031308600003087000C3085315E25BD012C
:0C0FF400BE01BF01C00120008531642D4A
:020000040001F9
:04000E0024C2FCDA32
:00000001FF
