:0400000080312828FB
:100008007E14803120007F08F100931C2428803161
:10001800C7208031240016148031C7208031043075
:1000280024009100161B16282000260824009100A1
:10003800161B1C288031C720240016152000931099
:100048007108FF007E10090080312A282000A601CF
:10005800A7017E10200080317928720821009D00B8
:100068002000A201A3012308803AF4008030740222
:10007800031D40280A3022020318522801302000AC
:10008800A2070030A33D2308803AF40080307402B0
:10009800031D50280A302202031C422821009D1407
:1000A8009D1854281C08F400F50174082000A000CD
:1000B8007508A10021001B08F400F50120002108A3
:1000C800F7002008F6007608F700F60174087604B1
:1000D800F90075087704FA007908A0007A08A100E9
:1000E8002108F3002008F2000800803198208031B0
:1000F8008031BC2080318031AE2080310130F20067
:100108000030F30080313120803173082000A500D1
:100118007208A4001030FB007B08A60024080339ED
:10012800FB007B08A70082287A3021009900033061
:1001380023008C00033021008C0012308D00200039
:100148008C018D01903021009E0001309D008B179D
:100158000B170800803024009400283095002730C1
:10016800920021009115921520009111921108001A
:10017800023028009700F9309600210093142800D7
:10018800950117150800053024001405F00016081D
:0A0198001F39700403190800C7287E
:020000040001F9
:04000E0084CFFFDAC2
:00000001FF
