:0400000080313B28E8
:100008007E14803120007F08A300931C372803301A
:10001800F0000030F1008031762080317108FC005A
:100028007008FB007C082000A1007B08A000210DBF
:10003800A10CA00C210DA10CA00C2008A2002208E4
:10004800A4007B080339A0002008A5002430A000E4
:100058002008F1000230F2000030F3000230803155
:100068004420200093102308FF007E1009008031EF
:100078003D282000A401A5017E1020008031CA2857
:10008800F5008031D4208031240016148031D4202A
:100098008031753524009100161B5028F601F701B0
:1000A8007708803AF4007308803A7402031D5E28CA
:1000B8007208760203187128710886008701010802
:1000C800240091000130F4007408F107161B6A2817
:1000D8000130F6070030F73D54288031D420240041
:1000E80016150800700821009D009D1879281C0825
:1000F800F200F3017208F9007308FA001B08F20015
:10010800F3017A08F5007908F4007408F500F401A1
:1001180072087404F70073087504F8007708F9008A
:100128007808FA007A08F1007908F00008007A30B7
:1001380021009900033023008C00033021008C003B
:1001480012308D0020008C018D01903021009E001E
:1001580001309D008B170B17080080302400940095
:100168002830950027309200210091159215200023
:10017800911192110800023028009700F93096007A
:1001880021009314280095011715080080319B2041
:1001980080318031BF2080318031B1208031D32837
:1001A800053024001405F00016081F3970040319DF
:0401B8000800D4283F
:020000040001F9
:04000E0084CFFFDAC2
:00000001FF
