:0400000080313B28E8
:100008007E14803120007F08A300931C372803301A
:10001800F0000030F1008031A12080317108FC002F
:100028007008FB007C082000A1007B08A000210DBF
:10003800A10CA00C210DA10CA00C2008A2002208E4
:10004800A7007B080339A0002008A8002730A000DB
:100058002008F1000230F2000030F3000230803155
:100068004420200093102308FF007E1009008031EF
:100078003D282000A701A8017E10200080317928A2
:10008800F5008031F5208031240016148031F520E8
:100098008031753524009100161B5028F601F701B0
:1000A8007708803AF4007308803A7402031D5E28CA
:1000B80072087602031874288031F520803171089F
:1000C800860087010108240091000130F4007408BB
:1000D800F107161B6D280130F6070030F73D54284C
:1000E8008031F5202400161508002000A501A6017E
:1000F8002608803AA400A7302402031D8528103062
:1001080025020318972801302000A5070030A63DD6
:100118002608803AA400A7302402031D9528103031
:100128002502031C87288031C62080318031EA20CF
:1001380080318031DC208031A028700821009D00AA
:100148009D18A4281C08F200F3017208F90073082E
:10015800FA001B08F200F3017A08F5007908F400A8
:100168007408F500F40172087404F7007308750444
:10017800F8007708F9007808FA007A08F100790899
:10018800F00008007A3021009900033023008C0029
:10019800033021008C0012308D0020008C018D016D
:1001A800903021009E0001309D008B170B1708002E
:1001B80080302400940028309500273092002100D8
:1001C8009115921520009111921108000230280013
:1001D8009700F9309600210093142800950117150F
:1001E8000800053024001405F00016081F397004B3
:0601F80003190800F528C0
:020000040001F9
:04000E0084CFFFDAC2
:00000001FF
