:0400000080312628FD
:100008007E14803120007F08F300911D162883316B
:10001800792380312000911124001516F901280058
:1000280095012128931C21281030790203182028D3
:100038000130F2007208F907931073082000FF00DE
:100048007E10090080312828F901C8019430840005
:1000580083308500403086000030870008308331C7
:10006800E3237E1020008331DC2B2000A600A701AB
:10007800A8012808803AF80080307802031D462835
:1000880002302702031808002000A401A501273523
:100098002607F80078088600870116000104031D6A
:1000A80057283F30052927352607F80078088600A5
:1000B8008701403F013A031D6328413F003A031D71
:1000C80067280630052927352607F80078088600AE
:1000D8008701403F023A031D7328413F003A031D40
:1000E80077285B30052927352607F8007808860029
:1000F8008701403F033A031D8328413F003A031D0F
:1001080087284F30052927352607F8007808860004
:100118008701403F043A031D9328413F003A031DDD
:1001280097286630052927352607F80078088600BD
:100138008701403F053A031DA328413F003A031DAC
:10014800A7286D30052927352607F8007808860086
:100158008701403F063A031DB328413F003A031D7B
:10016800B7287D30052927352607F8007808860046
:100178008701403F073A031DC328413F003A031D4A
:10018800C7282730052927352607F800780886006C
:100198008701403F083A031DD328413F003A031D19
:1001A800D7287F30052927352607F80078088600E4
:1001B8008701403F093A031DE328413F003A031DE8
:1001C800E7286F30052927352607F80078088600C4
:1001D8008701403F0A3A031DF328413F003A031DB7
:1001E800F828A401A501082927352607F80078086A
:1001F80086008701403F0B3A031D0429413F003A1E
:100208007930A4000030A50027352307F8007808C6
:1002180086008701403F013A031D1429413F003AF7
:10022800031D1A298030A4070030A53D2508F701D1
:10023800F7072408F601F60781313D2180312000B7
:100248002808F501F5072708F401F4078331582336
:1002580080310530F4000030F50083310F23803100
:100268008331E923803101302000A7070030A83D01
:100278003D2801307605F40000307705F50083311C
:10028800D423813177082000A1007608A000210D31
:10029800A10CA00C01302005F40000302105F50068
:1002A8008331CC23813177082000A1007608A00093
:1002B800210DA10CA00C210DA10CA00C01302005D2
:1002C800F40000302105F5008331C423813177081B
:1002D8002000A1007608A000210DA10CA00C210D82
:1002E800A10CA00C210DA10CA00C01302005F400DC
:1002F80000302105F5008331BC23813177082000C7
:10030800A1007608A0000430A200210DA10CA00CC9
:10031800A20B892901302005F40000302105F500E1
:100328008331B423813177082000A1007608A0002A
:100338000530A200210DA10CA00CA20B9E290130B2
:100348002005F40000302105F5008331AC2381310C
:1003580077082000A1007608A0000630A200210D31
:10036800A10CA00CA20BB32901302005F400003029
:100378002105F5008331A423813177082000A100ED
:100388007608A0000730A200210DA10CA00CA20B3A
:10039800C82901302005F40000302105F50083311B
:1003A8009C2308002000B300FF30A2000030A30007
:1003B8003308B100B2013108F4003208F500783092
:1003C800F6000030F7008231D22281317508200012
:1003D800A501A5077408A401A40782316C22813104
:1003E80020002308B501B5072208B401B40700307E
:1003F8003502643003193402031C252A0A30A2008E
:100408000030A3003508A501A5073408A401A407F6
:1004180082316C22813120002308B501B5072208FA
:10042800B401B4073008860087010130C03F0030AE
:10043800C13F3008023E860087010030C03FC13FFF
:10044800332A3008860087010030C03FC13F30089A
:10045800023E860087010130C03F0030C13F0A30AC
:10046800A9000030AA003508AC01AC073408AB017C
:10047800AB078231A322813120002F088600870133
:100488002908C03F2A08C13F0A30A9000030AA0045
:100498000A30A2000030A3003508A501A5073408DA
:1004A800A401A40782316C22813120002308AC0109
:1004B800AC072208AB01AB078231A32220002F082A
:1004C800023E860087012908C03F2A08C13F08006C
:1004D8002000A701A8012308220403199C2AA601C9
:1004E800A60AA31B812A0130A235A30D890B782AFD
:1004F8000130F8007808A607752A0130A735A80D3D
:10050800890B822A23082502031D8C2A220824022B
:10051800031C932A2208A4022308A53B27140130B0
:10052800A336A20C890B942A0130A602031D812A46
:100538002808A301A3072708A201A2070800200092
:100548002A0829040319CB2AAE01AE0AAA1BB62A27
:100558000130A935AA0D890BAD2A0130AD002D084F
:10056800AE07AA2A2A082C02031DBC2A29082B0236
:10057800031CC22A2908AB022A08AC3B0130AA3660
:10058800A90C890BC32A0130AE02031DB62A2C0818
:10059800AA01AA072B08A901A90708002000A001A1
:1005A800A101741CDC2A76082000A0077708A13D69
:1005B8000130F635F70D890BDD2A0130F536F40CDC
:1005C800890BE22A75087404031DD52A2000210826
:1005D800F501F5072008F401F40708001030790246
:1005E80003180C2B3C302000B6003608AF0038301A
:1005F800B7003708B00048088131D6218231383039
:100608002000B6003608A3003C30803139200800AD
:100618008331292308002000A001A10175082102C7
:10062800031D182B74082002031808000630F70071
:100638003030F600F60B1E2BF70B1E2B0000013096
:100648002000A0070030A13D122B20004308B10074
:100658004208B0004108AF004008AE004708AD00AE
:100668004608AC004508AB004408AA002A30A90097
:100678002908A3002E308031392008007A30210063
:10068800990023008C018D0121008C0112308D000E
:1006980020008C018D018B170B178331892383313F
:1006A80002308331692308008331E92383317508D7
:1006B8007404031D612B20008C1501307406750429
:1006C800031D080020000C150800F40080302400E9
:1006D8009400263095001614743592002100911567
:1006E8009215200091119211080024001419080095
:1006F800941A832B1108F0007008F1000800110803
:10070800F00070082000C80008007B30280097001F
:10071800F33096002100931428009501171508005E
:100728000B3400340B340034013400340134003409
:10073800741CA12B20008C14080020008C100800C9
:10074800741CA92B20000C14080020000C100800B1
:10075800741CB12B20008C17080020008C13080093
:10076800741CB92B20000C17080020000C1308007B
:10077800741CC12B20008D17080020008D13080061
:10078800741CC92B20000D17080020000D13080049
:10079800741CD12B20008D16080020008D12080033
:1007A800741CD92B20000D15080020000D1108001D
:1007B8008331422383318231F2228331DF2BFE00E1
:1007C80012001E00FE0BE42B003420008C110C11CB
:0207D800080017
:020000040001F9
:04000E0084CFFFDAC2
:00000001FF
