:0400000080312828FB
:100008007E14803120007F08F300911D1328803171
:100018003120803120009111240015162328931CCB
:10002800232875082600910076080339F200F20E9D
:1000380013087206CF3972069300200093107308D4
:100048002000FF007E10090080312A28F501F60102
:10005800F7017E1020008031782824001419080048
:10006800941A3C28F7011108F0007008F100080004
:100078001108F0007708753E860087017008810036
:100088000130F0007008F707080025009E010C30C9
:100098002600930020009C01FF309B002600910160
:1000A800920120009A011C150800F40080302400F9
:1000B800940026309500161474359200210091158D
:1000C800921520009111921108007A3021009900B0
:1000D80023008C0121008C0112308D0020008C013E
:1000E8008D018B170B170800803169208031803112
:1000F800492080318031862080310230803159207A
:1001080080318528023028009700F93096002100B8
:0A0118009314280095011715080044
:020000040001F9
:04000E0084CFFFDAC2
:00000001FF
