:0400000080314528DE
:100008007E14803120007F08A300931C4128280813
:10001800803AA00080302002031D1428FA302702FD
:1000280003181C2801302000A7070030A83D4028ED
:100038000330F0000030F100803179208031710800
:10004800FC007008FB007C082000A1007B08A000D1
:10005800210DA10CA00C210DA10CA00C2008A200C0
:100068002208FD007D08A0002008F1000230803140
:100078009E202000A701A80193102308FF007E10EE
:10008800090080314728FD012000A701A8017E1042
:10009800200080314F288031B92080312000A5010F
:1000A800A6012608803AA400A7302402031D5E2872
:1000B800103025020318702801302000A5070030F1
:1000C800A63D2608803AA400A7302402031D6E2806
:1000D80010302502031C60288031CF208031803108
:1000E800DD20803120008D157828700821009D00C2
:1000F8009D187C281C08F200F3017208F9007308A7
:10010800FA001B08F200F3017A08F5007908F400F8
:100118007408F500F40172087404F7007308750494
:10012800F8007708F9007808FA007A08F1007908E9
:10013800F0000800F2008031E82080312400161415
:100148008031E8208031723524009100161BAA28DE
:100158008031E8208031710824009100161BB228F4
:100168008031E8202400161508007A302100990013
:10017800033023008C00033021008C0012308D00E6
:1001880020008C018D01903021009E0001309D00DF
:100198008B170B1708008030240094003830950026
:1001A800273092002100911592152000911192118B
:1001B8000800023028009700F930960021009314B7
:1001C8002800950117150800053024001405F000D3
:0C01D80016081F39700403190800E828FD
:020000040001F9
:04000E0084CFFFDAC2
:00000001FF
