:08000000803102288731F02F46
:1002260020000C118C118C10080081318021813145
:1002360081316B2181311B29701C242920000D1668
:10024600080020000D120800701C2C2920008D16B5
:10025600080020008D120800701C342920000D179C
:10026600080020000D130800701C3C2920008D1783
:10027600080020008D130800701C442920008C14EF
:10028600080020008C100800701C4C2920000C1758
:10029600080020000C130800701C542920008C173D
:1002A600080020008C130800701C5C2920000C1428
:1002B600080020000C100800FE0012001E0001308D
:1002C600FE020030FF3B7F087E04031900346029DC
:1002D60082310C22813171082000C1007008C000F3
:1002E60082313022813120004008D5004108D600F5
:1002F6004208D70086313026080072302100990066
:10030600103023008C008D01103021008C008D01EF
:1003160020008C018D01903021009E0013309D003D
:100326000330F000F00B95290800F401F50171087F
:100336007502031DA0297008740203180800033013
:10034600F3009730F200F20BA629F30BA629003230
:100356000130F4070030F53D9A29F401F501701CCF
:10036600B8297208F4077308F53D0130F235F30D2C
:10037600890BB9290130F136F00C890BBE297008BA
:100386007104031DB2297508F1007408F000080015
:10039600FD01F91FD529F809F909F80A0319F90A1F
:1003A600FD01FD0A7808F0007908F100F2018E30AF
:1003B600FB007B08F3007D08FC007C08F400833119
:1003C60040237008F8007108F9007208FA00080066
:1003D600813113218131F82920000C1508002000F5
:1003E6008C15080020008C1408007108003A0319C7
:1003F600FD290B2A7008003A0319EF29013A03195F
:10040600F229033A03190B2A013A0319F5290B2A93
:10041600080021009D149D180E2A1C08F200F30105
:100426007208F9007308FA001B08F200F3017A0853
:10043600F5007908F4007408F500F40172087404F4
:10044600F70073087504F8007708F9007808FA00D1
:100456007A08F1007908F000080000302000B000AA
:100466008030B1004430B2000030A000A030A100BE
:100476004030A2004108F9004008F8008131CB2144
:10048600823178082000A3007908A4007A08A50024
:1004960085317C25823120002008B3002108B40074
:1004A6002208B5008431D32420003008C300310867
:1004B600C4003208C5004308C0004408C10045080E
:1004C600C2000800F21F7B2A7009F6007109F700C6
:1004D6007209F800F60A0319F70A0319F80A003038
:1004E6007607F0000030773DF1008030783DF2006D
:1004F600F51F912A7309F6007409F7007509F800CB
:10050600F60A0319F70A0319F80A00307607F3000A
:100516000030773DF4008030783DF5008030F206FB
:100526008030F50675087202031D08007408710212
:10053600031D08007308700208002000D401D11FB3
:10054600AB2AD009D109D00A0319D10AD401D40A99
:10055600CF1FB22ACE09CF09CE0A0319CF0A4E08F9
:100566004F040319D92AD301D30ACF1BC42A013059
:10057600CE35CF0D890BBB2A0130D2005208D307E6
:10058600B82A4F085102031DCA2A4E085002031CFE
:10059600D02A4E08D0024F08D13B0130CF36CE0CC0
:1005A600890BD12A0130D302031DC42A540803192A
:1005B600E12AD009D109D00A0319D10A5108CF007E
:1005C6005008CE0008007608860077088700403F6E
:1005D600F000413FF10081311F218231760886000B
:1005E600770887004231403FF000413FF1008131FA
:1005F6002721823176088600770887004431403FFC
:10060600F000413FF10081312F21823176088600CA
:10061600770887004631403FF000413FF1008131C5
:100626003721823176088600770887004831403FB7
:10063600F000413FF1008131472182317608860082
:10064600770887004A31403FF000413FF100813191
:100656004F21823176088600770887004C31403F6B
:10066600F000413FF1008131572182317908F100D4
:100676007808F00081313F21080073080319482BE0
:10068600720871047004031D592B0030F00000300D
:10069600F1000030F20008000130F5007508F3079C
:1006A6000130F236F10CF00C890B542BFE3072053A
:1006B6000319722B4F2B0130F5007508F307013033
:1006C600F007003003180130F1070030031801303D
:1006D600F2070130F236F10CF00C890B6D2BFF306E
:1006E600720503197F2B5E2B0130F3020130F035C2
:1006F600F10DF20D890B7A2BF11B852B023073025B
:100706000318772B73188D2BFF30F0057F30F1051A
:10071600FF30F2050310F30C7308F500F601F7013C
:100726001030F535F60DF70D890B942B7508F0048E
:100736007608F1047708F204740803190800F21722
:10074600080020004008C4004108C5004208C60051
:100756000310450D460DC7004708CD004D08031D83
:10076600BD2B0030C3000030C2000030C100003095
:10077600C00008004008C4004108C5004208C60081
:100786001730C636C50CC40C890BC42B4408C700E9
:100796004708C800C117FF30C005FF30C10500304B
:1007A600C2054008C9004108CA004208CB00CC0176
:1007B6008E30CD02CD1FFB2B4D08803A8F3E03189D
:1007C600ED2B0030C3000030C2000030C100003005
:1007D600C00008000130CC36CB0CCA0CC90C890B02
:1007E600EE2B0130C4004408CD070319142CED2B61
:1007F60018304D02031C112C0030C3000030C2001B
:100806000030C1000030C00008000130C935CA0DF3
:10081600CB0DCC0D890B092C0130CD024D08031DE3
:10082600082C48080319222CC909CA09CB09CC0986
:10083600C90A0319CA0A0319CB0A0319CC0A4C08B8
:10084600C3004B08C2004A08C1004908C00008009E
:1008560001340034013400340134003401340034EE
:1008660001340034013400340034003400340034E0
:1008760001340034013400340034003400340034D0
:1008860000340034003400340134003401340034C0
:1008960000340034013400340134003400340034B0
:1008A600013400340134003401340034013400349E
:1008B6000134003400340034003400340134003490
:1008C6000034003401340034013400340034003480
:1008D600003400340134003401340034013400346F
:1008E6000034003401340034013400340034003460
:1008F6000134003401340034003400340034003450
:10090600013400340134003401340034013400343D
:10091600013400340134003401340034013400342D
:100926000034003400340034003400340034003421
:10093600013400340134003401340034013400340D
:1009460001340034013400340134003401340034FD
:1009560001340034013400340134003400340034EE
:1009660001340034013400340034003400340034DF
:1009760000340034003400340034003400340034D1
:1009860000340034013400340034003400340034C0
:1009960001340034013400340134003401340034AD
:1009A60020003308B6003408B7003508B800031035
:1009B600370D380DB9003908BE003E08031DEA2C74
:1009C6000030B0000030B1000030B200080030083E
:1009D600B6003108B7003208B8000310370D380DDD
:1009E600B9003908BF003F08031D002D0030B000D4
:1009F6000030B1000030B20008000030BB0000300B
:100A0600BC000030BD0089303F07B6003608BE0284
:100A16003308B6003408B7003508B8001030B836C9
:100A2600B70CB60C890B122D3608B9003908BF0071
:100A36003008B6003108B7003208B8001030B836B2
:100A4600B70CB60C890B222D3608B9003908BF063B
:100A56008030B6003608BF05B417FF30B305FF3047
:100A6600B4050030B505B117FF30B005FF30B1054C
:100A76000030B2051830B6003608BA000130BB3572
:100A8600BC0DBD0D890B422D32083502031D512DBB
:100A960031083402031D512D30083302031C5A2D30
:100AA6003008B3023108B43B3208B53B3B14013081
:100AB600B335B40DB50D890B5B2D0130BA02031D9C
:100AC600412D3B08F0003C08F1003D08F2003E08CD
:100AD600B6003608F3003F08B7003708F400833144
:100AE600402370082000B0007108B1007208B200FF
:100AF600080020002008A6002108A7002208A80058
:100B06000310270D280DA9002908AA002A08031D8D
:100B1600932D0030A0000030A1000030A200080094
:100B26002308A6002408A7002508A8000310270DFF
:100B3600280DA9002908AF002F08031DA92D003094
:100B4600A0000030A1000030A20008002F087B3E64
:100B5600A6002608AA072008A6002108A700220842
:100B6600A8001030A836A70CA60C890BB52D2608B0
:100B7600A9002908AF002308A6002408A700250815
:100B8600A8001030A836A70CA60C890BC52D260880
:100B9600A9002908AF068030A6002608AF05A117D0
:100BA600A417FF30A305FF30A4050030A5050030CB
:100BB600AB000030AC000030AD000730A6002608C0
:100BC600AE00201CEC2D2308AB072408AC3D2508FD
:100BD600AD3D0130A236A10CA00C890BED2D0130E4
:100BE600A335A40DA50D890BF32D0130AE02031D0F
:100BF600E42D0930A6002608AE00201C082E230886
:100C0600AB072408AC3D2508AD3D0130A236A10C4A
:100C1600A00C890B092E0130AD36AC0CAB0C890B40
:100C26000F2E0130AE02031D002E2B08F0002C08FB
:100C3600F1002D08F2002A08A6002608F3002F0866
:100C4600A7002708F4008331402370082000A00085
:100C56007108A1007208A2000800FF302000E2001F
:100C6600FF30E300E001E1015508F0005608F1000D
:100C76005708F2004030F3001C30F4004630F5000F
:100C8600823165228631031C5E2E0A302000EA007E
:100C96000030EB000A30E8000030E9000A30E600D8
:100CA6000030E7000B30E4000030E5000130E000E2
:100CB6000030E100E12E20005508F0005608F10052
:100CC6005708F2000030F3007A30F4004430F500A3
:100CD6008231652286310318E12E20005508F00086
:100CE6005608F1005708F2000030F300C830F4004F
:100CF6004230F500823165228631031C9B2E00307E
:100D06002000A0002030A1004130A2005508A30019
:100D16005608A4005708A50085317C258631200099
:100D26002008D5002108D6002208D7000130DE2E83
:100D360020005508F0005608F1005708F200003070
:100D4600F3002030F4004130F5008231652286310F
:100D5600031CC62E00302000A000C830A10042307F
:100D6600A2005508A3005608A4005708A50085311F
:100D76007C25863120002008D5002108D6002208CF
:100D8600D7000230DE2E00302000A0007A30A1000D
:100D96004430A2005508A3005608A4005708A50031
:100DA60085317C25863120002008D5002108D60013
:100DB6002208D7000330E2000030E300200060087C
:100DC6006104031D7E2F0A30CE000030CF00550887
:100DD600B3005608B4005708B5000030B0007A30AA
:100DE600B1004430B2008431D3248631200030086B
:100DF600C0003108C1003208C2008331A423863105
:100E060020004108D1004008D0008231A02286315E
:100E160020004F08EB004E08EA000A30CE000030F2
:100E2600CF005508B3005608B4005708B500003087
:100E3600B000C830B1004230B2008431D3248631CC
:100E460020003008C0003108C1003208C2008331DA
:100E5600A423863120004108D1004008D000823109
:100E6600A022863120004F08E9004E08E8000A302B
:100E7600CE000030CF005508B3005608B40057081E
:100E8600B5000030B0002030B1004130B2008431EE
:100E9600D324863120003008C0003108C100320852
:100EA600C2008331A423863120004108D1004008C6
:100EB600D0008231A022863120004F08E7004E087C
:100EC600E6000A30CE000030CF005508C0005608B4
:100ED600C1005708C2008331A4238631200041088F
:100EE600D1004008D0008231A022863120004F0870
:100EF600E5004E08E400EC01ED016D08803AD800EB
:100F060080305802031D892F04306C020318ED2F20
:100F160020006C09D8006D09D900D80A0319D90A2E
:100F26005808033EDA000030593DDB0063085B06D3
:100F3600031D9F2F62085A06031DA32F0130A42FFD
:100F46000030DC00DD015C08DE005D08DF006C03BC
:100F5600FF3A0907063E643E86008701403FF000DF
:100F6600413FF1000E30F2000030F3008131B02134
:100F76008631C8302000D8002030D90070085807C4
:100F8600F6007108593DF7005F08F9005E08F800A1
:100F96008231E622863120006D08F1006C08F000EF
:100FA6008131EB2186310330F0000030F1008131D0
:100FB6009821863101302000EC070030ED3D6D08A8
:100FC600803AD80080305802031DEB2F04306C02A3
:100FD600031C8B2F8131132108002B3084008430B1
:100FE6008500C8308600203087000030FF00A8301A
:0A0FF60081315F21200081311829AC
:020000040001F9
:04000E0084CFFFDAC2
:00000001FF
