:0400000080316F28B4
:100008007E14803120007F08A300FB01FC01931CB3
:100018006B28F4302B06031D39282C03031D3928BF
:100028000130F0000030F1008031B32080317108D8
:10003800FC007008FB007C082000A1007B08A000E1
:10004800210DA10CA00C210DA10CA00C2008A200D0
:100058002208FD007D08A0002008F1000230803150
:10006800DC208031013020006728E8302B0603307F
:1000780003192C06031D66280530F0000030F10036
:100088008031B32080317108FC007008FB007C08C7
:100098002000A1007B08A000210DA10CA00C210DBF
:1000A800A10CA00C2008A2002208FD007D08A000D9
:1000B8002008F10002308031DC2080312000AB01C3
:1000C800AC016A280130AB070030AC3D931023081F
:1000D800FF007E10090080317128FD012000AB016E
:1000E800AC017E102000813128297A302100990046
:1000F80003308C0012308D0020008C018D018B178D
:100108000B170330A4000030A5000030A600A7009C
:100118008031F72080312000A901AA012A08803AFD
:10012800A800A7302802031D9B28103029020318B5
:10013800AD2801302000A9070030AA3D2A08803ADE
:10014800A800A7302802031DAB2810302902031C81
:100158009D288131052180318131132108007008E3
:1001680021009D000032003221009D149D18BA28FC
:100178001C08F200F3017208F9007308FA001B0862
:10018800F200F3017A08F5007908F4007408F50024
:10019800F40172087404F70073087504F80077080E
:1001A800F9007808FA007A08F1007908F0000800E8
:1001B800F20081311E2180312400161481311E2164
:1001C8008031723524009100161BE82881311E21E8
:1001D8008031710824009100161BF02881311E21FE
:1001E8002400161508002000240823008C00200095
:1001F800260823008D00903021009E0001309D00CC
:100208000800803024009400383095002730920090
:1002180021009115921520009111921108000230C9
:1002280028009700F93096002100931428009501C2
:1002380017150800053024001405F00016081F39AA
:100248007004031908001E298031792081312000AB
:040258008D152D29AA
:020000040001F9
:04000E0084CFFFDAC2
:00000001FF
