:08000000803102288731FD2F39
:100F36008731BD2787319B2F20000C118C110C1295
:100F46008C120800701CAA2F20008D1708002000A4
:100F56008D130800701CB22F20008D16080020008B
:100F66008D120800701CBA2F20008D140800200076
:100F76008D1008000130F0000030F1008731A52700
:100F860087310130F0000030F1008731AD2787311D
:100F96000130F0000030F1008731B527873101308C
:100FA600F0000030F1008731D927080087319F27EC
:100FB6008731E92F20000C15080020008C15080049
:100FC60020000C16080020008C1608007108003A54
:100FD6000319EE2FFC2F7008003A0319DD2F013A92
:100FE6000319E02F033A0319E32F013A0319E62FF9
:0A0FF600FC2F0800200087319B2F1C
:020000040001F9
:04000E0084CFFFDAC2
:00000001FF
