:0400000080318228A1
:100008007E14803120007F08B600911C4F280130F3
:10001800C6070030C73D4708803AB3008030330236
:10002800031D18280A304602031C4D282000C6016B
:10003800C70183319823803171087004031940285F
:100048004A302000B3003308A0004F3082314922E3
:10005800803120005008A101A1074F08A001A00786
:100068000030A2000030A3004D30B3003308A400D4
:1000780080318F20803143282000CD01CE0120001F
:100088004E08F101F1074D08F001F00783314F23C5
:10009800803120009110931C7E280130C807003061
:1000A800C93D4908803AB30084303302031D5E28F5
:1000B80002304802031C7C282000C801C9014E08F0
:1000C800B4004D08B300340DB40CB30C340DB40CAB
:1000D800B30C3308B5003508B7003730B300330820
:1000E800F4000130F5000030F600023082310822B9
:1000F800200093103608FF007E1009008031842804
:100108003C3084000030850015308331B4237E10E4
:1001180020008331AD2B2000B101B2012209A500D6
:100128002309A600A50A0319A60A20082507AF0077
:100138002108263DB0003008F701F7072F08F6011F
:10014800F60783313623803176082000A50077082A
:10015800A6003008F701F7072F08F601F6078231E5
:10016800B3228031760820002507A7007708263DAE
:10017800A8003008F701F7072F08F601F6078131C4
:10018800C7218031760820002707B1007708283D6D
:10019800B2003208803AA50081302502031DD62816
:1001A800003031020318E02820003208AC01AC0707
:1001B8003108AB01AB07E528FF302000AB00003069
:1001C800AC002C08803AA50080302502031DEE28DB
:1001D80001302B020318F4282000A901AA011329D1
:1001E80020003208803AA50081302502031DFE2830
:1001F800003031020318082920003208AE01AE078A
:100208003108AD01AD070D29FF302000AD000030E9
:10021800AE002E08AA01AA072D08A901A9072408DB
:10022800860087012908C03F2A08C13F24088600A4
:1002380087012008C03F2108C13F0800730803193F
:100248002A29720871047004031D3B290030F0004C
:100258000030F1000030F20008000130F5007508A8
:10026800F3070130F236F10CF00C890B3629FE3019
:1002780072050319542931290130F5007508F3076F
:100288000130F007003003180130F107003003187F
:100298000130F2070130F236F10CF00C890B4F29CE
:1002A800FF3072050319612940290130F30201303A
:1002B800F035F10DF20D890B5C29F11F59297318DE
:1002C8006B29FF30F0057F30F105FF30F205031090
:1002D800F30C7308F500F601F7011030F535F60D4B
:1002E800F70D890B72297508F0047608F104770870
:1002F800F204740803190800F217080070082100B6
:100308009D00F901FA017A08803AF2008030720201
:10031800031D90290A3079020318A1290130F90731
:100328000030FA3D7A08803AF20080307202031DEC
:100338009F290A307902031C922921009D149D18D7
:10034800A3291C08F200F3017208F9007308FA00E7
:100358001B08F200F3017A08F5007908F400740824
:10036800F500F40172087404F70073087504F800C6
:100378007708F9007808FA007A08F101F107790896
:10038800F001F0070800200042084407C4004308B1
:10039800453DC5004409F8004509F900F80A031964
:1003A800F90A7708F101F1077608F001F007003043
:1003B800F2000030F3008331192381317808700787
:1003C800FA007908713DFB007B08F101F1077A0812
:1003D800F001F0070530F2000030F30083311923F3
:1003E80071082000C101C1077008C001C007410899
:1003F800C301C3074008C201C2074108F701F70754
:100408004008F601F6070800F8008331A32382317B
:10041800240016148331A3238231783524009100F7
:10042800F901FA017A08803AF7007608803A7702EB
:10043800031D202A750879020318422A8231D8221E
:10044800823171087004031908008331A3238231B3
:100458007408860087010108240091000130F70024
:100468007708F4078231D8228231710870040319A1
:1004780008000130F9070030FA3D162A8331A3231A
:100488002400161520000C1508002000A3000130D8
:10049800F0000030F10081318221823120002308F0
:1004A800860087017008C03F7108C13F0530F00021
:1004B8000030F10081318221823171082000A201CF
:1004C800A2077008A101A1072208F101F10721087C
:1004D800F001F0070030F2000030F30083311923F7
:1004E80082317108F901F9077008F801F8078231BB
:1004F800F92220002008860087017808C03F790883
:10050800C13F7A08C23F08007A30210099000330C1
:1005180023008C008D01C33021008C0012308D0027
:1005280020008C018D010330B8000030B900003084
:10053800BA000030BB0083316623823183318D23BA
:1005480082318331742382318331C02382318331F4
:10055800BA2382318331822320008D150800770861
:10056800F101F1077608F001F0070030F2000030E1
:10057800F300833119237008F8007108F90000307E
:10058800F91BFF30FA00FB0078082000BC07790847
:10059800BD3D7A08BE3D7B08BF3D3D08F701F70722
:1005A8003C08F601F6070800F201F301FF30730674
:1005B800031DE02AFF3072060319F62A2400161BD1
:1005C800EA2A0130F0000030F10008000130F2079B
:1005D8000030F33DFF307306031DF42AFF30720626
:1005E800031DE22AF001F1010800FD01F91F032BA8
:1005F800F809F909F80A0319F90AFD01FD0A78084A
:10060800F0007908F100F2018E30FB007B08F3005E
:100618007D08FC007C08F400813122217008F80074
:100628007108F9007208FA000800F401F501701C5D
:10063800212B7208F4077308F53D0130F235F30DEC
:10064800890B222B0130F136F00C890B272B71080E
:100658007004031D1B2B7508F101F1077408F001E4
:10066800F00708007708F101F1077608F001F007B4
:100678000730F2000030F300833119237108F901C3
:10068800F9077008F801F8077908F701F7077808FB
:10069800F601F60708007108F3007008F200730D00
:1006A800F30CF20C730DF30CF20C72082600910097
:1006B80070080339F200F20E13087206CF39720679
:1006C800930008002000380823008C0020003A0816
:1006D80023008D00903021009E0001309D0008000D
:1006E80080302400940028309500273092002100A3
:1006F8009115921520009111921108002100911472
:100708002000911021009314200093108B170B17D1
:10071800080025009E010C302600930091019201EB
:10072800FF3020009B00080020000C1F9E2BF001CA
:10073800F10108000130F0000030F1000800053038
:1007480024001405F00016081F3970040319080066
:10075800A32B8231882283318331C5238331B02B87
:10076800640080010131890BB52B00340130280069
:10077800970095011715080020009C019A011C1587
:04078800080008005D
:020000040001F9
:04000E0084CFFFDAC2
:00000001FF
