:0400000080312628FD
:100008007E14803120007F08F300911D162883316B
:100018004E2380312000911124001516F901280083
:1000280095012128931C21281030790203182028D3
:100038000130F2007208F907931073082000FF00DE
:100048007E100900803128287730840083308500AD
:10005800403086000030870008308331BF23F90123
:10006800C8017E10200083315E2B2000A900AA0160
:10007800AB012B08803AA40080302402031D4628D7
:1000880002302A02031808002000A701A8012A3517
:100098002907A40024088600870116000104031D0F
:1000A80057283F30FA282A352907A4002408860053
:1000B80087011600013AA5001600A504031D66284D
:1000C8000630FA282A352907A40024088600870163
:1000D8001600023AA5001600A504031D75285B301A
:1000E800FA282A352907A400240886008701160063
:1000F800033AA5001600A504031D84284F30FA28EA
:100108002A352907A4002408860087011600043A26
:10011800A5001600A504031D93286630FA282A3581
:100128002907A4002408860087011600053AA500BF
:100138001600A504031DA2286D30FA282A352907C0
:10014800A4002408860087011600063AA5001600B8
:10015800A504031DB1287D30FA282A352907A400F3
:100168002408860087011600073AA5001600A50492
:10017800031DC0282730FA282A352907A400240897
:10018800860087011600083AA5001600A504031D7D
:10019800CF287F30FA282A352907A40024088600AA
:1001A80087011600093AA5001600A504031DDE28DC
:1001B8006F30FA282A352907A40024088600870109
:1001C80016000A3AA5001600A504031DEE28A7018B
:1001D800A801FD282A352907A400240886008701DC
:1001E80016000B3AA5001600A5047930A7000030C8
:1001F800A8002A352307A4002408860087011600D2
:10020800013AA5001600A504031D0E298030A70792
:100218000030A83D2808F7002708F60081312D2175
:10022800803120002B08F5002A08F40083311E23B2
:1002380080310530F4000030F5008231EB22803146
:100248008331C523803101302000AA070030AB3D3F
:100258003D2801307605F40000307705F50083313C
:10026800B723813177082000A1007608A000210D6E
:10027800A10CA00C01302005F40000302105F50088
:100288008331AF23813177082000A1007608A000D0
:10029800210DA10CA00C210DA10CA00C01302005F2
:1002A800F40000302105F5008331A7238131770858
:1002B8002000A1007608A000210DA10CA00C210DA2
:1002C800A10CA00C210DA10CA00C01302005F400FC
:1002D80000302105F50083319F2381317708200004
:1002E800A1007608A0000430A200210DA10CA00CEA
:1002F800A20B792901302005F40000302105F50012
:1003080083319723813177082000A1007608A00067
:100318000530A200210DA10CA00CA20B8E290130E2
:100328002005F40000302105F50083318F23813149
:1003380077082000A1007608A0000630A200210D51
:10034800A10CA00CA20BA32901302005F400003059
:100358002105F50083318723813177082000A1002A
:100368007608A0000730A200210DA10CA00CA20B5A
:10037800B82901302005F40000302105F50083314B
:100388007F2308002000B300FF30A2000030A30044
:100398003308B100B2013108F4003208F5007830B2
:1003A800F6000030F7008231B02281317508200054
:1003B800A5007408A40082314E2281312000230850
:1003C800B5002208B4000030350264300319340245
:1003D800031C0D2A0A30A2000030A3003508A5002E
:1003E8003408A40082314E22813120002308B50050
:1003F8002208B4003008860087010130C03F003071
:10040800C13F3008023E860087010030C03FC13F2F
:100418001B2A3008860087010030C03FC13F3008E2
:10042800023E860087010130C03F0030C13F0A30DC
:10043800A9000030AA003508AC003408AB008231AE
:100448008322813120002F08860087012908C03FB8
:100458002A08C13F0A30A9000030AA000A30A200C9
:100468000030A3003508A5003408A40082314E22CC
:10047800813120002308AC002208AB00823183229E
:1004880020002F08023E860087012908C03F2A085D
:10049800C13F08002000A701A8012208230403196E
:1004A8007E2AA601A60AA31B632A0130A235A30D42
:1004B800890B5A2A0130F8007808A607572A013014
:1004C800A735A80D890B642A23082502031D6E2A67
:1004D80022082402031C752A2208A4022308A53B2B
:1004E80027140130A336A20C890B762A0130A60204
:1004F800031D632A2808A3002708A200080020007B
:1005080029082A040319AB2AAE01AE0AAA1B962AA7
:100518000130A935AA0D890B8D2A0130AD002D08AF
:10052800AE078A2A2A082C02031D9C2A29082B02B6
:10053800031CA22A2908AB022A08AC3B0130AA36C0
:10054800A90C890BA32A0130AE02031D962A2C0898
:10055800AA002B08A90008002000A001A101741C12
:10056800BA2A76082000A0077708A13D0130F635A1
:10057800F70D890BBB2A0130F536F40C890BC02A1C
:1005880074087504031DB32A20002108F50020080B
:10059800F4000800103079020318E82A3C302000E3
:1005A800B6003608AF003830B7003708B000480842
:1005B8008131C621823138302000B6003608A300C8
:1005C8003C308031392008008331052308002000A1
:1005D800A001A10175082102031DF42A7408200254
:1005E800031808000630F7003030F600F60BFA2A38
:1005F800F70BFA2A000001302000A0070030A13DC7
:10060800EE2A20004308B3004208B2004108B100B6
:100618004008B0004708AF004608AE004508AD00E6
:100628004408AC002C30F8007808A3003030803142
:10063800392008008331C523833174087504031DEC
:10064800272B20008C1574037504031D0800200057
:100658000C150800F4008030240094002630950022
:1006680016147435920021009115921520009111ED
:10067800921108007A302100990023008C018D0125
:1006880021008C0112308D0020008C018D018B1708
:100698000B170800240014190800941A582B110885
:1006A800F0007008F10008001108F0007008200040
:1006B800C800080083313E23833183316C238331A2
:1006C800023083312E2383318231CE228331682B4D
:1006D8007B3028009700F3309600210093142800FF
:1006E8009501171508000B3400340B34003401341D
:1006F800003401340034741C842B20008C1408004E
:1007080020008C100800741C8C2B20000C1408008E
:1007180020000C100800741C942B20008C17080073
:1007280020008C130800741C9C2B20000C17080058
:1007380020000C130800741CA42B20008D1708003F
:1007480020008D130800741CAC2B20000D17080026
:1007580020000D130800741CB42B20008D1608000F
:1007680020008D120800741CBC2B20000D150800F9
:1007780020000D110800FE0012001E00FE0BC02B09
:0A078800003420008C110C11080051
:020000040001F9
:04000E0084CFFFDAC2
:00000001FF
