:08000000803102288731F02F46
:10021C0081317D2181318131A72181311129701CDE
:10022C001A2920008C15080020008C110800701C65
:10023C00222920000C15080020000C110800701C4D
:10024C002A2920000D16080020000D120800701C31
:10025C00322920008D16080020008D120800701C19
:10026C003A2920000D17080020000D130800701CFF
:10027C00422920008D17080020008D130800701CE7
:10028C004A2920008C14080020008C100800701CD7
:10029C00522920000C17080020000C130800701CB9
:1002AC005A2920008C17080020008C130800701CA1
:1002BC00622920000C14080020000C1008000030EB
:1002CC00F000F1008131152181310030F000F10096
:1002DC0081311D210800FE0012001E000130FE02BB
:1002EC000030FF3B7F087E04031900347229723002
:1002FC0021009900083023008C008D01083021006A
:10030C008C008D0120008C018D01903021009E000D
:10031C000800F401F50171087502031D9729700896
:10032C007402031808000330F3009730F200F20B4C
:10033C009D29F30B9D2900320130F4070030F53D67
:10034C0091291330F0000030F10082311B228131F1
:10035C0071082000C1007008C00082314022813138
:10036C0020004008D5004108D6004208D70086314D
:10037C0040260800F401F501701CC8297208F40726
:10038C007308F53D0130F235F30D890BC9290130A5
:10039C00F136F00C890BCE2970087104031DC229AB
:1003AC007508F1007408F0000800FD01F91FE5293B
:1003BC00F809F909F80A0319F90AFD01FD0A780888
:1003CC00F0007908F100F2018E30FB007B08F3009D
:1003DC007D08FC007C08F400833150237008F80081
:1003EC007108F9007208FA00080081316521813129
:1003FC000D2A0130F0000030F10081311521080088
:10040C000130F0000030F10081311D21080073082B
:10041C00003A0319122A1A2A7208003A0319FF2902
:10042C00013A0319062A1A2A0800700821009D00B7
:10043C009D181E2A1C08F200F3017208F9007308BB
:10044C00FA001B08F200F3017A08F5007908F400B1
:10045C007408F500F40172087404F700730875044D
:10046C00F8007708F9007808FA007A08F1007908A2
:10047C00F000080000302000B0008030B1004430A3
:10048C00B2000030A000A030A1004030A200410812
:10049C00F9004008F8008131DB2182317808200016
:1004AC00A3007908A4007A08A50085318C25823137
:1004BC0020002008B3002108B4002208B5008431C4
:1004CC00E32420003008C3003108C4003208C50002
:1004DC004308C0004408C1004508C2000800F21FD0
:1004EC008B2A7009F6007109F7007209F800F60AF8
:1004FC000319F70A0319F80A00307607F0000030E8
:10050C00773DF1008030783DF200F51FA12A730988
:10051C00F6007409F7007509F800F60A0319F70AD2
:10052C000319F80A00307607F3000030773DF40029
:10053C008030783DF5008030F2068030F506750885
:10054C007202031D080074087102031D0800730871
:10055C00700208002000D401D11FBB2AD009D10998
:10056C00D00A0319D10AD401D40ACF1FC22ACE094A
:10057C00CF09CE0A0319CF0A4E084F040319E92AF2
:10058C00D301D30ACF1BD42A0130CE35CF0D890B22
:10059C00CB2A0130D2005208D307C82A4F08510287
:1005AC00031DDA2A4E085002031CE02A4E08D00222
:1005BC004F08D13B0130CF36CE0C890BE12A0130EC
:1005CC00D302031DD42A54080319F12AD009D109E6
:1005DC00D00A0319D10A5108CF005008CE000800E8
:1005EC007608860077088700403FF000413FF10015
:1005FC0081312521823176088600770887004231C7
:10060C00403FF000413FF10081312D2182317608CD
:10061C008600770887004431403FF000413FF100ED
:10062C008131352182317608860077088700463182
:10063C00403FF000413FF10081313D21823176088D
:10064C008600770887004831403FF000413FF100B9
:10065C0081314D21823176088600770887004A3136
:10066C00403FF000413FF100813155218231760845
:10067C008600770887004C31403FF000413FF10085
:10068C0081315D2182317908F1007808F0008131E7
:10069C004521080073080319582B72087104700463
:1006AC00031D692B0030F0000030F1000030F20027
:1006BC0008000130F5007508F3070130F236F10C33
:1006CC00F00C890B642BFE3072050319822B5F2B07
:1006DC000130F5007508F3070130F00700300318FE
:1006EC000130F107003003180130F2070130F23607
:1006FC00F10CF00C890B7D2BFF30720503198F2B3D
:10070C006E2B0130F3020130F035F10DF20D890B37
:10071C008A2BF11B952B023073020318872B73184D
:10072C009D2BFF30F0057F30F105FF30F2050310F3
:10073C00F30C7308F500F601F7011030F535F60DE2
:10074C00F70D890BA42B7508F0047608F1047708D3
:10075C00F204740803190800F2170800200040087E
:10076C00C4004108C5004208C6000310450D460DE3
:10077C00C7004708CD004D08031DCD2B0030C3002A
:10078C000030C2000030C1000030C000080040083A
:10079C00C4004108C5004208C6001730C636C50C57
:1007AC00C40C890BD42B4408C7004708C800C117D8
:1007BC00FF30C005FF30C1050030C2054008C9003C
:1007CC004108CA004208CB00CC018E30CD02CD1FAF
:1007DC000B2C4D08803A8F3E0318FD2B0030C300C4
:1007EC000030C2000030C1000030C00008000130F1
:1007FC00CC36CB0CCA0CC90C890BFE2B0130C400B7
:10080C004408CD070319242CFD2B18304D02031C72
:10081C00212C0030C3000030C2000030C100003079
:10082C00C00008000130C935CA0DCB0DCC0D890BA9
:10083C00192C0130CD024D08031D182C4808031942
:10084C00322CC909CA09CB09CC09C90A0319CA0A2D
:10085C000319CB0A0319CC0A4C08C3004B08C2007D
:10086C004A08C1004908C0000800013400340134B2
:10087C0000340134003401340034013400340134C8
:10088C0000340034003400340034013400340134BA
:10089C0000340034003400340034003400340034AC
:1008AC000034013400340134003400340034013499
:1008BC000034013400340034003401340034013489
:1008CC000034013400340134003401340034003479
:1008DC00003400340034013400340034003401346A
:1008EC00003401340034003400340034003401345A
:1008FC000034013400340134003400340034013449
:10090C000034013400340034003401340034013438
:10091C000034003400340034003401340034013429
:10092C000034013400340134003401340034013417
:10093C000034013400340134003400340034003409
:10094C0000340034003400340034013400340134F9
:10095C0000340134003401340034013400340134E7
:10096C0000340134003401340034013400340134D7
:10097C0000340134003400340034013400340134C8
:10098C0000340034003400340034003400340034BB
:10099C0000340034003400340034003400340134AA
:1009AC000034003400340034003401340034013499
:1009BC000034013400340134003420003308B60014
:1009CC003408B7003508B8000310370D380DB900DE
:1009DC003908BE003E08031DFA2C0030B000003070
:1009EC00B1000030B20008003008B6003108B70082
:1009FC003208B8000310370D380DB9003908BF00A4
:100A0C003F08031D102D0030B0000030B100003045
:100A1C00B20008000030BB000030BC000030BD004C
:100A2C0089303F07B6003608BE023308B6003408DA
:100A3C00B7003508B8001030B836B70CB60C890BB7
:100A4C00222D3608B9003908BF003008B60031082D
:100A5C00B7003208B8001030B836B70CB60C890B9A
:100A6C00322D3608B9003908BF068030B60036087A
:100A7C00BF05B417FF30B305FF30B4050030B50522
:100A8C00B117FF30B005FF30B1050030B20518309A
:100A9C00B6003608BA000130BB35BC0DBD0D890B54
:100AAC00522D32083502031D612D31083402031D0D
:100ABC00612D30083302031C6A2D3008B302310853
:100ACC00B43B3208B53B3B140130B335B40DB50D16
:100ADC00890B6B2D0130BA02031D512D3B08F00020
:100AEC003C08F1003D08F2003E08B6003608F30061
:100AFC003F08B7003708F4008331502370082000FA
:100B0C00B0007108B1007208B20008002000200883
:100B1C00A6002108A7002208A8000310270D280D05
:100B2C00A9002908AA002A08031DA32D0030A00043
:100B3C000030A1000030A20008002308A600240801
:100B4C00A7002508A8000310270D280DA9002908C7
:100B5C00AF002F08031DB92D0030A0000030A100FC
:100B6C000030A20008002F087B3EA6002608AA072A
:100B7C002008A6002108A7002208A8001030A836DB
:100B8C00A70CA60C890BC52D2608A9002908AF00B7
:100B9C002308A6002408A7002508A8001030A836B2
:100BAC00A70CA60C890BD52D2608A9002908AF0681
:100BBC008030A6002608AF05A117A417FF30A305A7
:100BCC00FF30A4050030A5050030AB000030AC00B0
:100BDC000030AD000730A6002608AE00201CFC2D0E
:100BEC002308AB072408AC3D2508AD3D0130A236E7
:100BFC00A10CA00C890BFD2D0130A335A40DA50D66
:100C0C00890B032E0130AE02031DF42D0930A60012
:100C1C002608AE00201C182E2308AB072408AC3D78
:100C2C002508AD3D0130A236A10CA00C890B192E64
:100C3C000130AD36AC0CAB0C890B1F2E0130AE0263
:100C4C00031D102E2B08F0002C08F1002D08F200CB
:100C5C002A08A6002608F3002F08A7002708F4008E
:100C6C008331502370082000A0007108A100720885
:100C7C00A2000800FF302000DE00FF30DF00DC01A6
:100C8C00DD015508F0005608F1005708F20040301D
:100C9C00F3001C30F4004630F500823175228631A9
:100CAC00031C6E2E0A302000E6000030E7000A30EC
:100CBC00E4000030E5000A30E2000030E3000B30C5
:100CCC00E0000030E1000130DC000030DD00F12EEE
:100CDC0020005508F0005608F1005708F2000030CB
:100CEC00F3007A30F4004430F500823175228631FD
:100CFC000318F12E20005508F0005608F100570893
:100D0C00F2000030F300C830F4004230F5008231BC
:100D1C0075228631031CAB2E00302000A000203041
:100D2C00A1004130A2005508A3005608A4005708A2
:100D3C00A50085318C25863120002008D50021089E
:100D4C00D6002208D7000130EE2E20005508F00006
:100D5C005608F1005708F2000030F3002030F40080
:100D6C004130F500823175228631031CD62E0030BD
:100D7C002000A000C830A1004230A2005508A300FA
:100D8C005608A4005708A50085318C258631200013
:100D9C002008D5002108D6002208D7000230EE2EFC
:100DAC0000302000A0007A30A1004430A200550889
:100DBC00A3005608A4005708A50085318C25863160
:100DCC0020002008D5002108D6002208D7000330C7
:100DDC00DE000030DF0020005C085D04031D8E2F58
:100DEC000A30CE000030CF005508B3005608B400CE
:100DFC005708B5000030B0007A30B1004430B20072
:100E0C008431E324863120003008C0003108C10051
:100E1C003208C2008331B423863120004108D1004E
:100E2C004008D0008231B022863120004F08E70004
:100E3C004E08E6000A30CE000030CF005508B30053
:100E4C005608B4005708B5000030B000C830B100E7
:100E5C004230B2008431E324863120003008C000D7
:100E6C003108C1003208C2008331B423863120001E
:100E7C004108D1004008D0008231B02286312000D8
:100E8C004F08E5004E08E4000A30CE000030CF00D9
:100E9C005508B3005608B4005708B5000030B00030
:100EAC002030B1004130B2008431E324863120007F
:100EBC003008C0003108C1003208C2008331B423AD
:100ECC00863120004108D1004008D0008231B02288
:100EDC00863120004F08E3004E08E2000A30CE00B5
:100EEC000030CF005508C0005608C1005708C2009A
:100EFC008331B423863120004108D1004008D00052
:100F0C008231B022863120004F08E1004E08E0000B
:100F1C00E801E9016908803AD80080305802031DC5
:100F2C00992F043068020318ED2F20005F08690622
:100F3C00031DA22F5E086806031DA62F0130A72FE4
:100F4C000030D800D9015808DA005908DB006835A0
:100F5C00603E86008701403FF000413FF1000E30BB
:100F6C00F2000030F3008131C0218631C8302000FE
:100F7C00D8002030D90070085807F6007108593D88
:100F8C00F7005B08F9005A08F8008231F622863126
:100F9C0020006908F3006808F2008131FB218631DA
:100FAC000330F0000030F10081318F2186310130A7
:100FBC002000E8070030E93D6908803AD80080300D
:100FCC005802031DEB2F04306802031C9B2F813148
:100FDC00652108003B30840084308500C8308600D1
:100FEC00203087000030FF00A830813171212000B3
:040FFC0081310E2908
:020000040001F9
:04000E0084CFFFDAC2
:00000001FF
