:0400000080314528DE
:100008007E14803120007F08A300931C41282C080F
:10001800803AA00080302002031D1428FA302B02F9
:1000280003181C2801302000AB070030AC3D4028E5
:100038000130F0000030F1008031842080317108F7
:10004800FC007008FB007C082000A1007B08A000D1
:10005800210DA10CA00C210DA10CA00C2008A200C0
:100068002208FD007D08A0002008F1000230803140
:10007800AD202000AB01AC0193102308FF007E10D7
:10008800090080314728FD012000AB01AC017E103A
:10009800200080314F288031E42080310130200059
:1000A800A4000030A5000030A600A7008031C820B9
:1000B80080312000A901AA012A08803AA800A730A7
:1000C8002802031D69281030290203187B280130F3
:1000D8002000A9070030AA3D2A08803AA800A730C6
:1000E8002802031D792810302902031C6B2880314F
:1000F800D62080318031F120803120008D15832871
:10010800700821009D000032003221009D149D18C6
:100118008B281C08F200F3017208F9007308FA0032
:100128001B08F200F3017A08F5007908F400740856
:10013800F500F40172087404F70073087504F800F8
:100148007708F9007808FA007A08F1007908F000D1
:100158000800F2008031FC20803124001614803120
:10016800FC208031723524009100161BB92880319B
:10017800FC208031710824009100161BC1288031B1
:10018800FC202400161508002000240823008C00F9
:100198002000260823008D00903021009E000130A9
:1001A8009D000800803024009400383095002730E6
:1001B80092002100911592152000911192110800CA
:1001C8007A302100990003308C0012308D00200015
:1001D8008C018D018B170B1708000230280097003F
:1001E800F93096002100931428009501171508008E
:1001F800053024001405F00016081F39700403198F
:040208000800FC28C6
:020000040001F9
:04000E0084CFFFDAC2
:00000001FF
