:0400000080314728DC
:100008007E14803120007F08A300931C43282C080D
:10001800803AA00080302002031D1428FA302B02F9
:1000280003181C2801302000AB070030AC3D4228E3
:100038000130F0000030F10080318B2080317108F0
:10004800FC01FC077008FB01FB077C082000A100ED
:100058007B08A000210DA10CA00C210DA10CA00C67
:100068002008A2002208FD007D08A0002008F10059
:1000780002308031B6202000AB01AC019310230878
:10008800FF007E10090080314928FD01AB01AC0159
:100098007E102000813102297A3021009900013038
:1000A8008C0012308D0020008C018D018B170B17EE
:1000B8000130A4000030A5000030A6000030A700E1
:1000C8008031D12080312000A901AA012A08803A74
:1000D800A800A7302802031D73281030290203182E
:1000E800852801302000A9070030AA3D2A08803A57
:1000F800A800A7302802031D832810302902031CFA
:1001080075288031DF2080318031ED2008007008AB
:1001180021009D000032003221009D149D18922874
:100128001C08F200F3017208F9007308FA001B08B2
:10013800F200F3017A08F5007908F4007408F50074
:10014800F40172087404F70073087504F80077085E
:10015800F9007808FA007A08F101F1077908F00146
:10016800F0070800F2008031F820803124001614CE
:100178008031F8208031723524009100161BC22886
:100188008031F8208031710824009100161BCA289C
:100198008031F820240016150800200024082300C8
:1001A8008C002000260823008D00903021009E003E
:1001B80001309D000800803024009400283095000C
:1001C800273092002100911592152000911192116B
:1001D8000800023028009700F93096002100931497
:1001E8002800950117150800053024001405F000B3
:1001F80016081F39700403190800F82880315020A8
:08020800813120008D1507294A
:020000040001F9
:04000E0084CFFFDAC2
:00000001FF
