:040000008031132810
:100008007E14803120007F08DD008231F3228031A8
:1000180083317F2320005D08FF007E1009008031B6
:100028001528DE01DF01E001E101E201E301E4015D
:10003800E501E6017E1020008531322D20002008E0
:10004800A6002108A7002208A8000310270D280DE4
:10005800A9002908AA00AA08031D39280030A00011
:100068000030A1000030A20008002308A6002408E0
:10007800A7002508A8000310270D280DA9002908A6
:10008800AF00AF08031D4F280030A0000030A100CA
:100098000030A20008002F087B3EA6002608AA0709
:1000A8002008A6002108A7002208A8001030A836BA
:1000B800A70CA60C890B5B282608A9002908AF0005
:1000C8002308A6002408A7002508A8001030A83691
:1000D800A70CA60C890B6B282608A9002908AF06CF
:1000E8008030A6002608AF05A117A417FF30A30586
:1000F800FF30A4050030A5050030AB000030AC008F
:100108000030AD000730A6002608AE00201C92285B
:100118002308AB072408AC3D2508AD3D0130A236C5
:10012800A10CA00C890B93280130A335A40DA50DB3
:10013800890B99280130AE02031D8A280930A600D0
:100148002608AE00201CAE282308AB072408AC3DC7
:100158002508AD3D0130A236A10CA00C890BAF28B3
:100168000130AD36AC0CAB0C890BB5280130AE02B2
:10017800031DA6282B08F0002C08F1002D08F2001A
:100188002A08A6002608F3002F08A7002708F4006D
:1001980082313A2270082000A0007108A10072087C
:1001A800A200080020003008B4003108B500320869
:1001B800B6000310350D360DB7003708BD00BD0871
:1001C800031DEF280030B3000030B2000030B1004A
:1001D8000030B00008003008B4003108B50032081B
:1001E800B6001730B636B50CB40C890BF6283408AF
:1001F800B7003708B800B117FF30B005FF30B105B8
:100208000030B2053008B9003108BA003208BB0026
:10021800BC018E30BD02BD1F2D293D08803A8F3E9E
:1002280003181F290030B3000030B2000030B100BD
:100238000030B00008000130BC36BB0CBA0CB90C59
:10024800890B20290130B4003408BD070319462959
:100258001F2918303D02031C43290030B300003029
:10026800B2000030B1000030B00008000130B935EC
:10027800BA0DBB0DBC0D890B3B290130BD02BD0871
:10028800031D3A29380803195429B909BA09BB09C1
:10029800BC09B90A0319BA0A0319BB0A0319BC0A2B
:1002A8003C08B3003B08B2003A08B1003908B00076
:1002B800080020004B08860087010030C03FC13F7E
:1002C8004909CC004A09CD00CC0A0319CD0A4708D0
:1002D8004C07D40048084D3DD5005508BF01BF075D
:1002E8005408BE01BE078331BB23813120004B086F
:1002F800860087013E08810741313F08813D7F31F3
:100308005508BF01BF075408BE01BE078131D72178
:10031800813120004B08860087013E088107413162
:100328003F08813D7F314B08860087014131811F9D
:10033800A029D001D101A7294B0886008701403F99
:10034800D000413FD1005108803ACC0084304C02A3
:10035800031DB02900305002031CB829FF302000CB
:10036800CE000330CF00CF2920004B08860087013C
:100378004131811FC229D201D301C9294B08860006
:100388008701403FD200413FD3005308CF01CF0738
:100398005208CE01CE074B08860087014E08C03FA1
:1003A8004F08C13F080020003E08E0073F08E13D34
:1003B800E11FE129C301C401E7296108C401C40799
:1003C8006008C301C3074408803AC0008430400273
:1003D800031DF02900304302031CF829FF302000D8
:1003E800E0000330E1000A2A2000E11FFE29C501D0
:1003F800C601042A6108C601C6076008C501C50709
:100408004608E101E1074508E001E0076108F90154
:10041800F9076008F801F8078431942481317808D5
:100428002000A3007908A4007A08A500D730A0000E
:100438002330A1003C30A2008031222081312000ED
:100448002008B0002108B1002208B2008031D6206F
:1004580020003108C201C2073008C101C1074208A3
:10046800BF01BF074108BE01BE0708007308031992
:10047800422A720871047004031D532A0030F000E8
:100488000030F1000030F20008000130F500750876
:10049800F3070130F236F10CF00C890B4E2AFE30CE
:1004A800720503196C2A492A0130F5007508F3070B
:1004B8000130F007003003180130F107003003184D
:1004C8000130F2070130F236F10CF00C890B672A83
:1004D800FF3072050319792A582A0130F3020130D6
:1004E800F035F10DF20D890B742AF11F712A73187A
:1004F800832AFF30F0057F30F105FF30F205031045
:10050800F30C7308F500F601F7011030F535F60D18
:10051800F70D890B8A2A7508F0047608F104770824
:10052800F204740803190800F21708007C08003E5A
:10053800F000FE307D3DF100F201F11BF20372087C
:10054800F3000030F7000030F6004E30F5002030A0
:10055800F4008331EC23823170082000A000710878
:10056800A1007208A2007308A3000A30A400A337F0
:10057800A20CA10CA00CA40BBB2A2108A601A6075B
:100588002008A501A5072508F0002608F100890D17
:10059800893B8909F200F3000030F7000030F600CB
:1005A8002E30F500E030F4008331EC2382317008FE
:1005B8002000A0007108A1007208A2007308A3001F
:1005C8000A30A400A337A20CA10CA00CA40BE62AA5
:1005D8002108FD01FD072008FC01FC070800200098
:1005E800911C08000530FB000030FC0059308431B4
:1005F800DE2482310130FB000030FC0057308431AA
:10060800DE24823120005A08FD01FD075908FC014B
:10061800FC0782319A2282317D082000DA01DA074C
:100628007C08D901D9075808F101F1075708F001EA
:10063800F00785312225823120005A08C801C807F1
:100648005908C701C7075808CA01CA075708C90186
:10065800C9075B30D6005608CB0081315D21823155
:1006680020005C08F101F1075B08F001F007843114
:10067800B424200091100800F80085311825833132
:10068800240016148531182583317835240091000B
:100698008431732483317108700403190800F90147
:1006A800FA017A08803AF7007608803A7702031D43
:1006B8005F2B7508790203187A2B85311825833149
:1006C8007408860087010108240091000130F700B2
:1006D8007708F4078431732483317108700403198F
:1006E80008000130F9070030FA3D552B85311825EF
:1006F8002400161508002000931C08006508803A9D
:10070800FB0080307B02031D8B2BFA306402031838
:10071800932B01302000E4070030E53DB92B8531EB
:100728002A25833171082000A101A1077008A001C2
:10073800A0072108FC002008FB007C0DFC0CFB0C2A
:100748007C0DFC0CFB0C7B08FD007D08A200223010
:10075800FB007B08F4000130F5000030F6000230A1
:10076800833140232000E401E501931008002000B4
:100778003F08F901F9073E08F801F8078431942485
:10078800833178082000A3007908A4007A08A5001E
:100798000030A0008030A1003F30A200803122202C
:1007A800833120002008B0002108B1002208B200DF
:1007B8008031D62020003108C101C1073008C001AE
:1007C800C0074108BF01BF074008BE01BE070800B7
:1007D8000030FB000030FA000030F9000030F8006B
:1007E800701CFE2B7408F8077508F93D7608FA3D69
:1007F8007708FB3D0130F435F50DF60DF70D890B43
:10080800FF2B0130F336F20CF10CF00C890B062C9F
:100818007308720471047004031DF42B7B08F30041
:100828007A08F2007908F1007808F00008007A30B8
:100838002100990003308C008D0120008C018D016E
:100848002100A501643025020318322C0130A400D0
:100858002408A50764302502031C2A2C8B170B17C4
:100868008431EF24843103302100A0000030A1003E
:100878000030A2000030A3008431FF248431843189
:10088800CB2420008D150800700821009D0000323F
:10089800003221009D149D184F2C1C08F200F30112
:1008A8007208F9007308FA001B08F200F3017A08CD
:1008B800F5007908F4007408F500F401720874046E
:1008C800F70073087504F8007708F9007808FA004B
:1008D8007A08F101F1077908F001F0070800F20140
:1008E800F301FF307306031D7B2CFF3072060319DA
:1008F800912C2400161F852C0130F0000030F100E7
:1009080008000130F2070030F33DFF307306031D85
:100918008F2CFF307206031D7D2CF001F1010800B9
:10092800FD01F91F9E2CF809F909F80A0319F90ABB
:10093800FD01FD0A7808F0007908F100F2018E3017
:10094800FB007B08F3007D08FC007C08F400823182
:100958003A227008F8007108F9007208FA000800D5
:100968007108F3007008F200730DF30CF20C730DAC
:10097800F30CF20C72082600910070080339F2009B
:10098800F20E13087206CF3972069300080025008C
:100998009E010C302600930020009C012100911438
:1009A800FF3020009B0026009101920120009A014F
:1009B8001C150800FD007C08F101F1077B08F00117
:1009C800F007843148247D08860087017008C03FFD
:1009D8007108C13F08008030240094002830950039
:1009E8002730920021009115921520009111921143
:1009F80085310D2508002100200823008C002100E6
:100A0800220823008D00903021009E0001309D00B7
:100A18000800023028009700F9309600210093144E
:100A28002800950117150800053024001405F0006A
:100A380016081F39700403190800182D71082000C2
:100A4800E301E3077008E201E207080020006308F9
:100A5800F101F1076208F001F007080084311B2456
:0C0A68008531853139258531352D080098
:020000040001F9
:04000E0084CFFFDAC2
:00000001FF
